:1000000012C017C016C015C014C013C012C011C052
:1000100010C00FC00EC00DC00CC00BC00AC009C07C
:1000200008C007C007C011241FBECFEDCDBF52D0FE
:100030007CC0E6CF1F920F920FB60F9211242F9320
:100040003F934F938F939F9388B398E0892788BB02
:100050008FE493EC0197F1F700C00000C39A809100
:10006000610081508093610081112AC08AE08093F1
:1000700061008091600024E017C0C29A9FEF30E7D2
:1000800042E0915030404040E1F700C0000098B39A
:10009000922798BB9FEF30E742E0915030404040BC
:1000A000E1F700C0000081508111E7CF809160002E
:1000B0008F5F80936000833018F081E08093600050
:1000C0009F918F914F913F912F910F900FBE0F9065
:1000D0001F90189587B38C6087BB04B603FE05C0DC
:1000E00084B798E0892784BF0DC004B600FC03C024
:1000F00004B601FE07C014BE85E08093610081E074
:1001000080936000F894A89581B5886181BD86E4EC
:1001100081BD789485B7806585BF85B7806285BFCE
:0E012000889585B78F7D85BFFFCFF894FFCF00
:00000001FF
